:020000040800F2
:10000000501400200D020008C9340008A91C000883
:10001000C534000847040008E54C00080000000053
:10002000000000000000000000000000A93D0008E2
:100030000110000800000000D93A000851460008ED
:1000400027020008270200082702000827020008EC
:1000500027020008270200082702000827020008DC
:1000600027020008191000082702000827020008CC
:1000700027020008270200082702000827020008BC
:10008000270200082702000827020008C94B0008C1
:100090005D4C00082702000827020008270200081C
:1000A000270200082702000827020008270200088C
:1000B000C1460008D14600080D4700082702000885
:1000C000270200082702000827020008270200086C
:1000D000270200082702000827020008270200085C
:1000E000270200082702000827020008270200084C
:1000F000270200082702000827020008270200083C
:10010000270200082702000827020008270200082B
:10011000270200082702000827020008270200081B
:10012000270200082702000827020008270200080B
:1001300000F002F800F05AF80AA090E8000C82449F
:100140008344AAF10107DA4501D100F04FF8AFF27C
:10015000090EBAE80F0013F0010F18BFFB1A43F0A5
:1001600001031847A4570000C45700000A444FF089
:10017000000C10F8013B13F0070408BF10F8014B06
:100180001D1108BF10F8015B641E05D010F8016B4B
:10019000641E01F8016BF9D113F0080F1EBF10F8AF
:1001A000014BAD1C0C1B09D16D1E58BF01F801CBD2
:1001B000FAD505E014F8016B01F8016B6D1EF9D555
:1001C0009142D6D37047000000230024002500266A
:1001D000103A28BF78C1FBD8520728BF30C148BFAA
:1001E0000B6070471FB51FBD10B510BD00F0F1F8D2
:1001F0001146FFF7F7FF05F059F900F00FF903B4C6
:10020000FFF7F2FF03BC00F017F900000948804730
:1002100009480047FEE7FEE7FEE7FEE7FEE7FEE7E8
:10022000FEE7FEE7FEE7FEE704480549054A064B00
:1002300070470000614600083101000850080020A6
:1002400050140020500C0020500C0020032A40F2D3
:10025000308010F0030C00F0158011F8013BBCF168
:10026000020F624498BF11F801CB00F8013B38BF80
:1002700011F8013BA2F1040298BF00F801CB38BF8E
:1002800000F8013B11F0030300F02580083AC0F0AC
:10029000088051F8043B083A51F804CBA0E8081054
:1002A000F5E7121D5CBF51F8043B40F8043BAFF387
:1002B0000080D20724BF11F8013B11F801CB48BFE1
:1002C00011F8012B24BF00F8013B00F801CB48BF17
:1002D00000F8012B704710B5203AC0F00B80B1E850
:1002E0001850203AA0E81850B1E81850A0E818506B
:1002F000BFF4F5AF5FEA027C24BFB1E81850A0E874
:10030000185044BF18C918C0BDE810405FEA827C8D
:1003100024BF51F8043B40F8043B08BF7047D207A4
:1003200028BF31F8023B48BF11F8012B28BF20F845
:10033000023B48BF00F8012B70474FF00002042930
:10034000C0F0128010F0030C00F01B80CCF1040C04
:10035000BCF1020F18BF00F8012BA8BF20F8022B38
:10036000A1EB0C0100F00DB85FEAC17C24BF00F8DE
:10037000012B00F8012B48BF00F8012B70474FF00C
:10038000000200B5134694469646203922BFA0E8E5
:100390000C50A0E80C50B1F12001BFF4F7AF0907F1
:1003A00028BFA0E80C5048BF0CC05DF804EB8900E2
:1003B00028BF40F8042B08BF704748BF20F8022B25
:1003C00011F0804F18BF00F8012B7047704770473D
:1003D0007047754600F02CF8AE4605006946534656
:1003E00020F00700854618B020B5FFF71DFFBDE8D7
:1003F00020404FF000064FF000074FF000084FF08C
:10040000000B21F00701AC46ACE8C009ACE8C0091C
:10041000ACE8C009ACE8C0098D46704710B5044689
:10042000AFF300802046BDE81040FFF7E8BE0000B3
:1004300000487047F007002001491820ABBEFEE7D6
:1004400026000200704700BFFEE70146CAB20B1249
:1004500043EA02207047000070B505460024062DCF
:1004600011D110480068007800F07F0001280AD1FF
:100470000C4800684079012805D10A480068807856
:10048000222800D1084C0CB9022070BD0548006834
:10049000846100210348006841820020A0470020B9
:1004A000F3E7000054000020E119000810B50446ED
:1004B0000249204603F030FF10BD0000400100203B
:1004C00010B504460249204603F026FF10BD000087
:1004D0003801002070B5054606480068C478052C30
:1004E00001DD002070BD044800EBC401284603F084
:1004F00013FFF7E7540000204801002002460029BE
:1005000001DD02207047012A01DD0220FAE7002008
:10051000F8E701460220704710B50020284988728C
:100520002848C07928490968487200202649096886
:10053000C87203F051FC4FF40071002003F02CFD51
:100540002021002003F008FD8021002003F074FC2E
:100550001E4890F82C10002003F080FC4021002061
:1005600003F0DCFC002000F025FA002003F0BCFCC6
:100570004FF4C061032003F00FFD4FF4A07103207E
:1005800003F0CCFC4FF4C071032003F055FC402174
:10059000032003F0D3FC4021032003F05FFC4FF461
:1005A0004051032003F080FC2021032003F0D4FC01
:1005B000002003F019FC01200549086010BD00006F
:1005C000D4070020EC55000854000020E40000206F
:1005D000700100207047704710B500200549096878
:1005E000887203F09FFA04F03DFB00200249086086
:1005F00010BD0000540000207001002010B5002440
:1006000049E047F6FF70294908602948008800F052
:100610000F002849087008460078274901EB800040
:10062000D0F8000C84B204F40040C8B1214800782E
:1006300001EB8000D0F8000CC0F30E0048F68F717B
:1006400008401C4909781C4A02EB8101C1F8000CE2
:1006500018490978491E194A52F8210080471AE0C2
:1006600004F08000B8B113480078134901EB800012
:10067000D0F8000C48F60F7108400E4909780E4A70
:1006800002EB8101C1F8000C0A490978491E0C4AA5
:1006900052F8210080470548006880B2044908806C
:1006A00000F400400028ACD110BD0000445C0040C4
:1006B000A40000205000002000500040C400002092
:1006C000A800002008B50020009022E1974800888B
:1006D00000F00F00964908700846007800287CD189
:1006E00094480068944908800846008800F030006B
:1006F000924908809048008800F440508E49088054
:100700008C4909684BF6BF7201EA020080F4005080
:1007100080F0200040F4004141F08001854A1160E2
:100720008248008800F0100090BB1046006848F630
:100730000F7108401146086002F0CAFD7D49096842
:100740004BF6BF7201EA02007B49098801F480512F
:1007500009B180F480507849098801F4005109B149
:1007600080F400507549098801F0100109B180F04A
:1007700010007249098801F0200109B180F02000C1
:1007800081B241F4004141F080016A4A116008BD24
:10079000FFE76848006880B20090BDF8000000F4F0
:1007A0000060B0B363480068C0F30E0048F68F7174
:1007B00008406049086003F087FC5E4909684BF611
:1007C000BF7201EA02005C49098801F4805109B155
:1007D00080F480505849098800E056E001F4005147
:1007E00009B180F400505549098801F0100109B1A0
:1007F00080F010005149098801F0200109B180F012
:10080000200081B241F4004141F08001494A116069
:10081000BDE7FFE7BDF8000000F40040002878D0F5
:1008200044480068C0F30E0048F68F710840414903
:10083000086002F02DFF3F4909684BF6BF7201EADC
:1008400002003D49098801F4805109B180F48050CB
:100850003949098801F4005109B180F40050374941
:10086000098801F0100109B180F0100033490988AE
:1008700001F0200109B180F0200081B241F4004173
:1008800041F080012B4A116081E7294800782C490A
:1008900001EB8000D0F8000C80B20090BDF80000A1
:1008A00000F40040C0B12248007801EB8000D0F88D
:1008B000000CC0F30E0048F68F7108401C490978FF
:1008C0001F4A02EB8101C1F8000C19490978491E41
:1008D0001C4A52F821008047BDF8000000F080005B
:1008E000B8B113480078164901EB8000D0F8000C2D
:1008F00048F60F7108400E490978114A02EB810150
:10090000C1F8000C0A490978491E0F4A52F8210023
:10091000804708484430006880B20449088000F4E9
:10092000004000287FF4D2AE00BF30E7A4000020D2
:1009300050000020005C00406400002066000020A1
:1009400000500040C4000020A80000200B4A02EB29
:100950008001D1F8001C01F4804171B102EB8001EB
:10096000D1F8001C48F68F7211404CF280021143FE
:10097000024B03EB8002C2F8001C7047005000409D
:100980000B4A02EB8001D1F8001C01F0400171B16B
:1009900002EB8001D1F8001C48F68F72114048F23A
:1009A000C0021143024B03EB8002C2F8001C7047E7
:1009B00000500040084A02EB8001D1F8001C48F6C4
:1009C0008F62114048F280021143034B03EB800217
:1009D000C2F8001C70470000005000407047000043
:1009E00003480068807A10B105200249086070470A
:1009F00054000020700100207047000010B500F086
:100A00001DF800F023F8044800F00AF80248407B83
:100A10000249087010BD00008C0100202D0000204C
:100A200038B5044604A0006800902146684604F0EA
:100A3000E9FB002038BD00000100000010B504F003
:100A400057FA04F0EFF904F07FFA10BD38B500242E
:100A50001EA00068009004F0A9FB04F043FA0128EE
:100A600001D104F02BFB00BF1949684604F0CAFB12
:100A700017480078552801D1002038BD04F032FA1B
:100A8000012802D104F01AFB13E004F02BFA80B91C
:100A900000BF0F49684604F0B5FB0D4800785528A3
:100AA00001D10020E9E72046611C8CB2B0F5407FFF
:100AB000EFDB07480078552804D02046611C8CB233
:100AC0000528D1DB6FF00D00D7E7000055000000CE
:100AD0008C01002000200449087004490870044972
:100AE0000870044908707047300000202F00002073
:100AF0002B0000202C0000200120014908707047C5
:100B00003000002010B50446FFF7E4FF04F00100B8
:100B100078B102F003FE052004F04AF901F000FD6F
:100B200001F028FD28B92F4803F07EFE08B9012006
:100B300010BD04F0020010B904F0080000B302F088
:100B4000EDFD052004F034F901F0EAFC01F012FD9E
:100B5000B0B901F045FB98B92348807B00F06000F4
:100B600020B904F0020008B10220E1E71E48807BB2
:100B700000F0200020B104F0080008B10820D7E7F9
:100B800004F0040058B102F0C9FD052004F010F98A
:100B900000F0FAFA00F002FB08B90420C8E704F0FC
:100BA000100060B102F0BAFD052004F001F901F077
:100BB00017FF20B901F050FE08B91020B8E704F083
:100BC000200050B102F0AAFD052004F0F1F805481C
:100BD00001F0D4FF08B92020AAE702F09FFD002011
:100BE000A6E70000C2070020A50400202DE9F04779
:100BF0002848006800F110052E8826480068077A0A
:100C0000D6B9042F18D12448007801280FD100212B
:100C10002248006880B2801C214A42F8101030201F
:100C20002049088000BF00201B49087003E0072707
:100C300010201C49088027E0AC88A64201D8042077
:100C400000E002200746B44200D93446A0B2A968A9
:100C500088478046002000F08FFB8146A2B24946BB
:100C6000404604F041F8A1B2002003F067F928885B
:100C7000001B28806888204468803020094908804B
:100C800000020949088000BF024909680F72BDE8E7
:100C9000F0870000540000204E000020505C00400F
:100CA0000060004066000020640000202DE9F04153
:100CB0002848006800F110042688A068C0B1BEB1C1
:100CC000A588B54200D93546A8B2A168884707462D
:100CD0002088401B2080608828446080002000F02D
:100CE00029FB8046AAB24146384602F0E1FE00BF29
:100CF000208850B14FF44050174908800021084621
:100D000003F01CF93020154908802088A18888420A
:100D100004DB03200F490968087218E020880028C6
:100D200004DD05200B490968087210E0208870B9BD
:100D3000062008490968087200210948006880B245
:100D4000801C084A42F81010302004490880BDE891
:100D5000F0810000540000206400002066000020A4
:100D6000505C0040006000402DE9F84F9B4800684F
:100D700045780027BA46062D1BD1984800680078B0
:100D800000F07F00002813D1944909688878012871
:100D900003D193490968CF690AE0022803D1904939
:100DA00009680F6A04E0032802D18D4909684F6A77
:100DB00094E0002D64D189480068408800285FD104
:100DC00086480068C08802285AD1844800680079A3
:100DD000002855D181480068007800F07F0028B9CC
:100DE0007E480068808808B97E4F77E07B480068BD
:100DF000007800F07F00012810D17849096848790F
:100E0000774909688A6900219047002866D17348AC
:100E10000068807A002861D0724F5FE06F480068F8
:100E2000007800F07F00022858D16C4800684079B3
:100E300000F00F0669480068407900F070096748C3
:100E40000068407900F0800038B1674901EB860006
:100E5000D0F8000C00F0300806E0634901EB860092
:100E6000D0F8000C00F4405860480078B04235D902
:100E7000B9F1000F32D1B8F1000F2FD0594F2DE04A
:100E8000082D07D155480068007800F07F0028BB86
:100E9000574F23E00A2D21D150480068007800F018
:100EA0007F0001281AD14D480068807AB0B14B48C4
:100EB0000068408890B949480068007970B947488F
:100EC0000068C088012809D1444909684879444923
:100ED00009688A690021904700B9464F57B13F48D9
:100EE0000068A0F812A03D48006887610020B8475C
:100EF00000240FE0394A12685078394A12681169A3
:100F000088470446032C05D1092034490968087232
:100F1000BDE8F88F31480068008A4FF6FF718842BB
:100F200004D109202D4909680872F1E7022C03D089
:100F30002A480068008A20B90820284909680872F0
:100F4000E6E726480068007800F08000E0B3234818
:100F50000068C088009021480068008A0099884293
:100F600004D91E4900980968088223E01B480068DC
:100F7000008A1A490968C98888421BDA174800683C
:100F8000008A1749096891F82C10884203DA00207A
:100F9000194908700EE011480068008A1049096874
:100FA00091F82C1090FBF1F201FB120010B9012016
:100FB000114908700A48006890F82C10074800682A
:100FC0008182FFF713FE07E0FFE70320034909686A
:100FD000087200030949088000BF99E75400002007
:100FE000580000206943000800500040E000002045
:100FF000ED4200083D4300084E0000206400002040
:10100000704770477047704710B500F003FB10BD84
:1010100010B500F001FB10BD10B5082000F022F85B
:1010200088B1082000F018F80748006820F0080090
:10103000054908600548007810B10120044908708E
:1010400001200449087010BD000401400D0000207B
:101050000E0000200C0000200149086070470000CD
:1010600014040140064A014600201268044B0A405D
:1010700014331B680B4202D0002A00D001207047B5
:101080000004014030B51A498379026853B30B68F4
:1010900093430B600A1D13680468A343136002792D
:1010A0000A441368046823431360114A0832136822
:1010B0000468A3431360131D1C680568AC431C60DF
:1010C0004479102C05D021440A68006802430A6064
:1010D00030BD11680468214311601968006801433C
:1010E000196030BD0079084401689143016030BD4A
:1010F000000401407FB504461FA0006803901FA0B4
:10110000006802901EA000680190234603AA0421F3
:10111000052002F015FC05460DB1012000E000207D
:1011200000B125E003201749087002AB01226821B5
:101130000420009402F09DFC05460DB1012000E062
:10114000002000B114E001AB01220A210420009428
:1011500002F08FFC05460DB1012000E0002000B137
:1011600006E044F6B07003F041FE002004B070BD0C
:101170006FF03E00FAE700005113010D015100002D
:1011800002A100002A00002000B5ADF5057D01A8F0
:10119000FFF7B0FF0DF5057D00BD000000B5ADF512
:1011A000057D4FF4047101A8FFF7E9F801A800F0EC
:1011B00025F820B16FF03E000DF5057D00BD012042
:1011C0000B4981F8280020220DF106010848FFF79D
:1011D0003DF80748411C0A680262496841620220E2
:1011E000044908700320044908700020E4E7000067
:1011F000990700202B0000202C00002010B5044689
:101200002146074802F06CFA10B16FF03E0010BDA5
:10121000A078012802D06FF03E00F8E70020F6E742
:10122000CD550008014609B910207047012901D1A8
:101230001820FAE7022901D12020F6E7032901D17D
:101240002820F2E7042901D13020EEE7052901D159
:101250004020EAE7062901D16020E6E7072901D10D
:101260008020E2E74FF48070DFE70000F0B5CA7835
:10127000002502F00F03D20601D58A7813430A78BD
:101280004FF00F0E12F0FF0F4FF001021CD0046858
:101290000F8802FA05F63740B74211D14FEA850CA4
:1012A0000EFA0CF724EA070703FA0CF43C43CF7854
:1012B000282F02D0482F02D002E0466100E00661EC
:1012C0006D1C082DE4D304600C88FF2C1ED94468E3
:1012D0005FF0000606F1080702FA07F50F882F40B5
:1012E000AF420FD14FEA860C0EFA0CF7BC4303FA5B
:1012F0000CF73C43CF78282F00D14561CF78482F99
:1013000000D10561761C082EE4D34460F0BD8068EE
:1013100080B270470246002092680A4200D0012045
:10132000704741617047016170470AB101617047C0
:101330004161704701460548006880B200EBC1007A
:10134000001D034A32F8100080B27047505C004024
:101350000060004001460648006880B200EBC10012
:10136000801D044A32F81000C0F3090070470000E5
:10137000505C00400060004001460548006880B2B3
:1013800000EBC100034A32F8100080B27047000041
:10139000505C00400060004010B5BCB004465221D3
:1013A00027A8FEF7ECFF9C2205496846FEF793FF4D
:1013B0002146684603F026FF00203CB010BD000027
:1013C0007C57000838B505460C46F82020700020F0
:1013D0006070684600F0F6F958B98020207002204D
:1013E00060709DF800000838A0709DF8000008307B
:1013F000E070002038BD000070B5ADF5047D0546F5
:101400000C4600260CE0F01C285C3F493F4A12883D
:101410008854701CC6B23D480088401C3B49088077
:101420006878B042EFDCA87800F01000002863D1A3
:10143000364908806946344803F0E4FE9DF801000F
:101440003C2805DA9DF8000000F0E000802845DD2A
:101450003C202F490880A720207020782A49087056
:101460002B4800786070607848701020A070A078D9
:101470008870274802886946E01CFEF7E7FE9DF861
:10148000000000F0E000802808D19DF80100821CD7
:1014900069461D48C01CFEF7D9FE30E09DF80000EB
:1014A00000F0E000A02809D19DF8010000F581724C
:1014B00069461548C01CFEF7C9FE20E09DF80000F3
:1014C00000F0E000C0281AD19DF8010000F20222CD
:1014D00069460D48C01CFEF7B9FE10E0A720207039
:1014E0009DF80100801C60700020A0706278694641
:1014F000E01CFEF7ABFE02E0A62020706670002024
:101500000DF5047D70BD00008C010020A0000020BE
:101510009C00002010B5014600220023A72008707F
:101520003148C07800F0E000802807D12E480079CB
:10153000801C2E4C2488001B83B21CE02A48C078F3
:1015400000F0E000A02808D12748007900F581705C
:10155000264C2488001B83B20DE02348C07800F09D
:10156000E000C02807D12048007900F202201F4C7B
:101570002488001B83B21C488078401C1A4CA07041
:101580002046807888703C2B12DD0DE017480088DB
:10159000C01C154C245CD01C0C54501CC2B2134807
:1015A0000088401C114C20803C2AEFDB4A7018E078
:1015B0000DE00E480088C01C0B4C245CD01C0C5461
:1015C000501CC2B209480088401C084C20809A4236
:1015D000EFDB4A70887800F00F0088700020034C21
:1015E0002080002010BD00008C0100209C00002005
:1015F00010B5BCB00446F02205496846FEF76BFE04
:101600002146684603F0FEFD00203CB010BD0000FE
:10161000185800087047000000B5ADF5157D464824
:10162000007801286AD1FFF767FA4448007810B9BA
:101630000120424908704FF44051032002F034FC6D
:1016400085A9032003F020FB9DF81402012804D093
:1016500002280DD0032839D111E09DF815020A287F
:1016600005D00DF105010DF2152003F0CBFD2DE0A5
:101670000DF105010DF2152000F07BFA26E09DF832
:1016800019020A2821D00DF105012D4803F0BAFDF9
:101690009DF816129DF8152201EB022188B203F085
:1016A000A5FB0DF10501274803F0ACFD9DF81812CC
:1016B0009DF8172201EB022188B203F097FB0DF190
:1016C00005010DF2192003F09DFD00BF00BF0720AA
:1016D0008DF804009DF806003D2801DD3D2001E065
:1016E0009DF806008DF806003021032002F034FC3E
:1016F000402201A9832003F0DEFA1AE04FF44051A2
:10170000032002F0D1FB85A9032003F0BDFA0720D6
:101710008DF80400FE208DF8050001208DF80600EC
:101720003021032002F018FC402201A9832003F09D
:10173000C2FA0DF5157D00BD080000209F000020B5
:1017400074570008785700087CB5044606A103C901
:10175000CDE9000107250020207065702A46694602
:10176000A01CFEF773FD7CBD4D423130353478004E
:1017700010B50548FFF7CBFD00F0080008B10120C7
:1017800010BD0020FCE700000008014010B5044631
:10179000802020700120607003F09AFBA07010BDC3
:1017A00008B507A10968009100210170032141706B
:1017B000BDF8001041809DF80210017108BD0000C5
:1017C000030701007FB50446002539A30FCB8DE840
:1017D0000F00FC20207003F085FB012801D103F0ED
:1017E0006DFC374801F08CFF35480078552803D050
:1017F0006FF0070004B070BD69460E2001F098FF3D
:101800002F4803F0B7FB2E4800F0A9F8012802D0BA
:101810006FF00700EEE720788DF80B0069460E2088
:1018200001F086FF264803F0A5FB254800F0A4F848
:10183000012802D06FF00700DCE7002524E02048F3
:1018400000F09AF8012805D1217880202841081A53
:1018500020700DE01A4800F082F8012805D12178A7
:10186000802028410844207002E06FF00700C1E7A3
:1018700020788DF80B0069460E2001F059FF1048C2
:1018800003F078FB681CC5B2052DD8DD0C4800F0CC
:1018900073F8012803D12078001F207006E0084863
:1018A00000F05DF8012801D1207820700020A1E728
:1018B00003A100F801180020606000003F01000053
:1018C0008C0100207FB505460C4616A30FCB8DE892
:1018D0000F00F52020700020607003F003FB01284A
:1018E00001D103F0EBFB134801F00AFF1148007827
:1018F000552803D06FF00A0004B070BD0A208DF89F
:101900000000A8788DF80A00E8788DF80B00694689
:101910000E2001F00DFF04200749487000202070C0
:1019200000BFE9E70A2100790118002060606C74AB
:101930003F0100008C0100201A00002070B5054610
:101940000C468020207001206070FFF711FF10B15D
:101950000120A07001E00020A070002070BD0146B1
:10196000087838B94878012804D18878022801D14C
:10197000012070470020FCE70146087830B948781C
:10198000012803D18878012800D170470020FCE7A6
:1019900030B59DB005460C4600201C90FE202070FE
:1019A0000020607069461CA800F0B2FE8020207004
:1019B0009DF8700000EB400101EBC000401C60701E
:1019C0009DF87000A0709DF8700000EB400101EBE5
:1019D000C0026946E01CFEF739FC00201DB030BD96
:1019E00010B504460249204602F096FC10BD0000E6
:1019F0006801002070B505460C460020607001F0BB
:101A000063FF10B90020207001E04420207070BDF9
:101A10002DE9F041AEB005460C46002700202D9080
:101A2000FE20207000206070AE786B462DAA3946EB
:101A3000304601F07BFA8046B8F1000F01D001205A
:101A400000E0002000B11EE0802020709DF8B4006E
:101A500000EBC000401C60709DF8B400A0709DF8C1
:101A6000B40000280BDD9DF8B400142807DA9DF8B7
:101A7000B40000EBC0026946E01CFEF7E7FB002063
:101A80002EB0BDE8F0816FF00100F9E72DE9F041DB
:101A9000AEB005460C46002700202D90FE20207099
:101AA00000206070AE786B462DAA3946304601F0B2
:101AB0003DFB8046B8F1000F01D0012000E000207E
:101AC00000B11CE0802020709DF8B400C000401CD4
:101AD00060709DF8B400A0709DF8B40000280ADD85
:101AE0009DF8B400102806DA9DF8B400C2006946DB
:101AF000E01CFEF7ABFB00202EB0BDE8F0816FF0DC
:101B00000100F9E730B5B9B005460C460020389021
:101B1000FE2020700020607001A938A800F088FD28
:101B2000802020709DF8E00005280ADD38206070D4
:101B30009DF8E000A070372201A9E01CFEF786FBAB
:101B400014E09DF8E00000EB400101EBC000401CF8
:101B500060709DF8E000A0709DF8E00000EB40018F
:101B600001EBC00201A9E01CFEF770FB002039B0B8
:101B700030BD70B505460C46802020700020607096
:101B80002878B82832D00FDCA0F1A00013287CD22E
:101B9000DFE800F046415F5A64696D73777B7B7BB9
:101BA0007B7B7B7B7B7B3400BE2819D008DCB9288B
:101BB00019D0BA282BD0BC281CD0BD2865D108E08C
:101BC000C3281FD0C4283AD0D0282ED0D1285CD129
:101BD00030E003F087F9012801D103F06FFA57E0F4
:101BE00003F0E4FA54E002F0E1F851E0204603F09B
:101BF000C1F94DE02046FFF7D3FD49E02046FFF74D
:101C0000A3FD45E021462846FFF7F4FE40E02046CC
:101C1000FFF7BCFD3CE021462846FFF737FF37E0E1
:101C200021462846FFF7F4FE32E021462846FFF71A
:101C300069FF2DE021462846FFF7AAFE28E021464D
:101C4000284600F027F823E021462846FFF73AFE11
:101C50001EE021462846FFF771FE19E0214628467E
:101C6000FFF7B0FB14E02046FFF7C2FC10E021466E
:101C70002846FFF7C1FB0BE007E02046FFF74AFCD0
:101C800006E02046FFF788FB02E0F720207000BF47
:101C900000BF70BD02460020024B187008704870EB
:101CA000704700009F00002000BFFEE710B500F065
:101CB00001F810BD08B514208DF8030003208DF83D
:101CC00002000420ADF8000069460448FFF7CEFA90
:101CD000012204210148FFF728FB08BD000801404C
:101CE0002DE9F04F87B004468B46A9A103C9CDE981
:101CF00005010027B846B9460026002500200490BB
:101D00008246039002908DF814B0224605A9032064
:101D100001F07EFE0190019808B1012000E0002052
:101D200000B133E16778B846781E205C00F0800986
:101D3000E65D781C255C082D03D1612007B0BDE865
:101D4000F08F1DE14FF00009202000EB0611681C08
:101D50000844C0B28DF815008EB9A078691CFF2226
:101D60008A4090438DF81600681CC0B240F04000D5
:101D70008DF817009DF816008DF8080067E0012E19
:101D800018D1A0788DF81600E078691CFF228A40EF
:101D900090438DF81700681CC0B240F040008DF8E9
:101DA00018009DF816008DF808009DF817008DF8B2
:101DB00009004CE0022E1FD1A0788DF81600E078C3
:101DC0008DF817002079691CFF228A4090438DF816
:101DD0001800681CC0B240F040008DF819009DF852
:101DE00016008DF808009DF817008DF809009DF881
:101DF00018008DF80A002AE0032E26D1A0788DF86D
:101E00001600E0788DF8170020798DF818006079B9
:101E1000691CFF228A4090438DF81900681CC0B2EB
:101E200040F040008DF81A009DF816008DF808006B
:101E30009DF817008DF809009DF818008DF80A002C
:101E40009DF819008DF80B0001E0612076E7311D47
:101E5000C8B2224605A901F0DBFD2078802801D018
:101E600061206BE76778781E205C00F08009B9F18B
:101E7000800F04D114F807A0781C205C0390781E12
:101E8000205C00F00F00C0F10800C0B20490691C93
:101E90000498884245D196B99DF81600FF228A40E1
:101EA0009043A17808438DF80800E0788DF8090088
:101EB00020798DF80A0060798DF80B0033E0012E4F
:101EC00010D19DF81700691CFF228A409043A17829
:101ED00008438DF80900E0788DF80A0020798DF824
:101EE0000B0020E0022E0DD19DF81800691CFF2286
:101EF0008A409043A17808438DF80A00E0788DF875
:101F00000B0010E0032E0AD19DF81900691CFF2276
:101F10008A409043A17808438DF80B0003E06120CC
:101F20000CE761200AE78020207084F801809DF88A
:101F30000800A0709DF80900E0709DF80A0020716B
:101F40009DF80B0060719DF808009DF8091048404D
:101F50009DF80A1048409DF80B104840A071B9F157
:101F6000800F0DD1564504D006EB0A00C6B2039D82
:101F700006E006EB0A00C6B20398401C2844C5B22E
:101F8000B9F1800F3FF4DEAE0020D7E66120D5E640
:101F900000200800000000002DE9F0410646304D09
:101FA000002493213046FFF79BFE8046B8F1000FD6
:101FB00001D0012000E0002000B14EE02948C078A7
:101FC000042804D12748D6F80210416005E02548CE
:101FD000B6F80310818071798171B7799322204618
:101FE000611CCCB22A5470222046611CCCB22A5407
:101FF0001C48C078042806D128191A49496801608C
:10200000201DC4B20CE088222046611CCCB22A54A8
:10201000281914498A88028089798170E01CC4B229
:102020002046611CCCB22F5428222046611CCCB221
:102030002A5432462946204601F0EAFC8046B8F18F
:10204000000F01D0012000E0002000B105E0B078D1
:10205000044988730020BDE8F0816120FBE700009F
:102060008E010020A50400202DE9F0410646324DE6
:10207000002495213046FFF733FE8046B8F1000F6B
:1020800001D0012000E0002000B152E02B48C078D0
:10209000072805D12948D6F80210C0F8071006E035
:1020A0002648B6F80310A0F8071071794172B77985
:1020B00095222046611CCCB22A5470222046611C15
:1020C000CCB22A541D48C078072807D129191B48CB
:1020D000D0F807000860201DC4B20DE08822204619
:1020E000611CCCB22A5429191448B0F807200A8080
:1020F000407A8870E01CC4B22046611CCCB22F54D8
:1021000028222046611CCCB22A5432462946204659
:1021100001F07EFC8046B8F1000F01D0012000E004
:10212000002000B105E0B078044988730020BDE8C4
:10213000F0816120FBE700008E010020A504002053
:102140002DE9F0410646244D002497213046FFF743
:10215000C7FD8046B8F1000F01D0012000E000204B
:1021600000B137E01D48D6F80210C0F80710B77963
:1021700097222046611CCCB22A5470222046611C52
:10218000CCB22A541548C0780A2806D12919134818
:10219000D0F807000860201DC4B22046611CCCB2F4
:1021A0002F5428222046611CCCB22A54324629469C
:1021B000204601F02DFC8046B8F1000F01D001202F
:1021C00000E0002000B105E0B078044988730020E9
:1021D000BDE8F0816120FBE78E010020A50400200E
:1021E00070B52C4D2846FFF7D7FE04460CB10120F0
:1021F00000E0002000B14BE02748807B00F00400A5
:1022000048B12846FFF730FF04460CB1012000E03A
:10221000002000B13CE02048807B00F0040048B181
:102220002846FFF78DFF04460CB1012000E0002096
:1022300000B12DE01848807B00F0200070B100F064
:1022400007F901201449C873284600F077FA0446BC
:102250000CB1012000E0002000B119E0012000F0E5
:1022600041F802200D4908700B48807B00F06000A7
:1022700018B902200A49087008E00748807B00F07E
:102280002000202802D1042005490870002070BDDC
:102290006120FCE78C010020A50400202B00002019
:1022A0002C0000200E490978890921B1012908D0A4
:1022B000022912D10BE00421094AD1700121917049
:1022C0000BE00721064AD1700221917005E00A2136
:1022D000034AD1700321917000BF00BF7047000016
:1022E000A5040020F0B585B0054629A103C9CDE9B4
:1022F000030129A00068029028A00068019000272F
:10230000274E28480078342801DB062700E0042700
:1023100025480088042802DA04202349088022483E
:1023200000788DF80D008DF80E5000208DF80F000C
:10233000791CC8B2334603AA022101F001FB04460E
:102340000CB1012000E0002000B11FE002AB002230
:102350003A210420009601F08CFB04460CB10120C8
:1023600000E0002000B111E00D4801AB012268211E
:102370000090042001F07DFB04460CB1012000E038
:10238000002000B102E0002005B0F0BD6120FBE7B5
:1023900000000000030300005A04000001DF0000F9
:1023A0008C0100202D0000202800002070B586B090
:1023B00021A103C9CDE9040121A00068039021A057
:1023C000006802900026204D20480078342801DB68
:1023D000062600E00426711CC8B22B4604AA02217E
:1023E00001F0AEFA04460CB1012000E0002000B17B
:1023F0001FE003AB00223A210420009501F039FBD5
:1024000004460CB1012000E0002000B111E00E48AC
:1024100002AB012268210090042001F02AFB04464F
:102420000CB1012000E0002000B102E0002006B065
:1024300070BD6120FBE70000000000000202000008
:102440005A04000001DF00008C0100202D00002054
:1024500070B586B025A103C9CDE9040125A00068A7
:10246000039025A0006802900026244D244800789F
:10247000342801DB062600E0042604208DF8110034
:1024800000208DF812000C208DF81300711CC8B2CA
:102490002B4604AA022101F053FA04460CB1012094
:1024A00000E0002000B11FE003AB00223A2104202D
:1024B000009501F0DEFA04460CB1012000E0002096
:1024C00000B111E00D4802AB012268210090042008
:1024D00001F0CFFA04460CB1012000E0002000B169
:1024E00002E0002006B070BD6120FBE700000000A4
:1024F000030300005A04000001DF00008C010020EB
:102500002D00002038B5044604A000680090224643
:102510006946032001F07CFA002038BD50002800F5
:1025200010B500F017F8FFF741FF04460CB1012089
:1025300000E0002000B108E001200549087041F2E8
:10254000EC3002F053FC002010BD6120FCE70000DD
:102550002A000020064800210180416081608181BD
:10256000002003498870C870C87308747047000061
:10257000A504002070B50E4C204600F02BF905464E
:102580000DB1012000E0002000B10FE02146042041
:1025900001F01BF905460DB1012000E0002000B15B
:1025A00004E0012003490874002070BD6120FCE7AD
:1025B0008C010020A504002070B51B4D2846FFF7B4
:1025C000EBFC04460CB1012000E0002000B129E042
:1025D0001648807B00F0040048B12846FFF744FD10
:1025E00004460CB1012000E0002000B11AE00F48C1
:1025F000807B00F0040048B12846FFF7A1FD0446A7
:102600000CB1012000E0002000B10BE02846FFF7EC
:1026100079FF04460CB1012000E0002000B101E088
:10262000002070BD6120FCE732050020A5040020D9
:102630002DE9F04104460E464FF000080027002522
:1026400000202F4908702070052002F0B1FBFFF731
:1026500081FF2DE0FFF77EFFFFF78CFF20BB3220CC
:1026600002F0C4FBFFF7A8FF00BB2648C178207822
:1026700000EB400202EBC000234A115400250DE09C
:102680002048001D415D681C227802EB420303EBE9
:10269000C20210441C4A1154681CC5B20A2DEFDB5B
:1026A0002078401C207001E04FF00108781CC7B270
:1026B000B8F1000F01D10A2FCCDD2078052809DC04
:1026C000207800EB400101EBC0020F493046FDF7D6
:1026D000BDFD13E037220C493046FDF7B7FD2078E9
:1026E000401F074908700846007800EB400101EBE5
:1026F000C002054937310548FDF7A8FDBDE8F08166
:1027000024000020A50400209D0300206504002073
:1027100070B504460D460748007800EB400101EB18
:10272000C00205492846FDF791FD02480078207057
:1027300070BD00002400002065040020F8B50446A8
:1027400021A00068009022466946032001F060F94C
:1027500005460DB1012000E0002000B132E0214625
:10276000042001F032F805460DB1012000E0002000
:1027700000B127E02146022000F0F2FF05460DB12E
:10278000012000E0002000B11CE0E07800F00F061E
:102790003046FEF747FD0D490880E07800F0200044
:1027A00020280DD1E07800F01000102804D16079C5
:1027B00000090749088003E02079000904490880DE
:1027C0000020F8BD6120FCE7E08028002600002002
:1027D0002800002038B504460BA00068009022466F
:1027E0006946022001F014F905460DB1012000E010
:1027F000002000B106E0054861880180FFF752FD26
:10280000002038BD6120FCE726070000A504002059
:102810007CB504460120019001AB00226821032011
:10282000009401F026F905460DB1012000E00020DA
:1028300000B10FE00123022268210320009401F07F
:10284000B7F805460DB1012000E0002000B101E01D
:1028500000207CBD7120FCE738B5124D12A0006845
:102860000090284600F026F804460CB1012000E054
:10287000002000B114E02B466A460321042001F039
:102880005FF804460CB1012000E0002000B107E031
:10289000022006490870052005490870002038BD4F
:1028A0007120FCE78C01002001043E002B00002079
:1028B0002C0000207FB50446124B0FCB8DE80F0093
:1028C0001148D0F80D00CDF80100224669460920D4
:1028D00001F09EF805460DB1012000E0002000B196
:1028E0000DE02146032000F03BFF05460DB101201D
:1028F00000E0002000B102E0002004B070BD7120B3
:10290000FBE70000C05500084307002010B504464F
:102910000D22A11C0748FDF799FC064854F8031F37
:10292000C0F80D106168C0F81110A168E41EC0F86D
:10293000151010BD430700202DE9FC41194E1AA0C7
:102940000068019019A000680090042718480078DA
:10295000342801DA01AD00E06D4600F02DF8334671
:102960002A460321042000F0EBFF04460CB10120AD
:1029700000E0002000B112E002200E49087000F0D3
:1029800087F804460CB1012000E0002000B106E009
:1029900041F2EC3002F02AFA0020BDE8FC817120FF
:1029A000FBE700008C0100200102000001001A007A
:1029B0002D0000202A00002010B50D210748FDF74A
:1029C000BCFC06480021C0F80D10002003494876E1
:1029D0003C2102481A30FDF7B0FC10BD430700202F
:1029E00070B50C4DFFF7A8FF04460CB1012000E0C4
:1029F000002000B10BE0284600F00EF804460CB1B0
:102A0000012000E0002000B101E0002070BD712035
:102A1000FCE700008C01002038B504460CA00068DB
:102A2000009022466946032000F0F2FF05460DB1F2
:102A3000012000E0002000B107E0012005494876B0
:102A40002046FFF763FF002038BD7120FCE700003F
:102A500005000000430700207CB50BA00068019032
:102A60000A4D01AB012268210420009501F001F814
:102A700004460CB1012000E0002000B101E000207C
:102A80007CBD7120FCE70000015100008C0100209A
:102A900070B5104CFFF7E0FF05460DB1012000E0D6
:102AA000002000B113E02046FFF7B2FE05460DB14D
:102AB000012000E0002000B109E0A078012804D145
:102AC000E078512801D1002070BD7120FCE7712011
:102AD000FAE700008C01002030B503460C464FF6A3
:102AE000FF71002213E0985C414008250BE001F0E3
:102AF000010020B148F2084080EA610000E048107F
:102B00000146681E45B2002DF1DC501C42B2A242C3
:102B1000E9DBC84300B230BD2DE9F043044607AD00
:102B200095E8E0104FF0000801F00109204669F334
:102B30005F0002F0010940EA890003F0010940EA60
:102B4000C90005F0010940EA091006F0010940EA50
:102B5000491007F0010940EA89100CF0010940EA28
:102B6000C9184FFA88F0BDE8F083014601F0100063
:102B700008B1012070470020FCE70000F0B589B0E3
:102B8000054600F045F804460CB1012000E00020A5
:102B900000B136E0052002F00BF900200122CDE95A
:102BA00000020290034611460390FFF7B5FF064668
:102BB00005A80090F0B200231A46194600F062F80A
:102BC00004460CB1012000E0002000B119E09DF89E
:102BD0001500401CC7B205A8C05D00F0020018B186
:102BE0006FF00E0009B0F0BD1CB906982860079878
:102BF000686002200449087006200449087000201B
:102C0000F0E76FF00E00EDE72B0000202C00002015
:102C10001FB50020039019A00068019009200390BF
:102C200002AB03AA0121022000F08AFE04460CB187
:102C3000012000E0002000B11DE0042010490870D0
:102C400002A801AB012268210090042000F011FFCE
:102C500004460CB1012000E0002000B10BE002A905
:102C6000022000F0B2FDF12803D16FF00E0004B095
:102C700010BD0020FBE76FF00E00F8E701D1000067
:102C80002A0000202DE9FF4F85B014469946129E78
:102C900000250020009082460027FF203070002091
:102CA0007070402C04DD6FF00C0009B0BDE8F08FAF
:102CB000059800F031F98046B8F1000F01D00120ED
:102CC00000E0002000B171E029466A1CD5B201AADB
:102CD0000598505401222846691CCDB201A90A5416
:102CE0000598FFF742FF012805D129466A1CD5B295
:102CF00001AA069850542846691CCDB201A90C546B
:102D0000E4B3402C02D10820009007E02046E117F0
:102D100004EB5171C910491CC9B200910098401EC2
:102D2000A4EBC00000F0FF0ABAF1000F06D00120AA
:102D300000FA0AF0401E4FFA80FB01E04FF0FF3B23
:102D4000009801280EDD002708E019F80720284622
:102D5000691CCDB201A90A54781C47B20098401EE4
:102D6000B842F2DCBAF1000F08D019F8070000EA07
:102D70000B0029466A1CD5B201AA5054324601A95B
:102D8000284600F045FE8046B8F1000F01D0012032
:102D900000E0002000B109E03146042000F015FDFC
:102DA00010B16FF00E0080E700207EE76FF00E009C
:102DB0007BE72DE9FF4F85B006468A46DDE91247DD
:102DC0004FF00008C14626F020004FFA80FB00209B
:102DD000207001A800900BF0FF005146DDE90723A9
:102DE000FFF750FF054635B901A800F073F810B998
:102DF0004FF001090AE04DB99DF80500821C01A9B8
:102E00003846FDF723FA2078401C207023E0052087
:102E100001F092FF01A800F0E9F905465DB901A8AB
:102E200000F058F838B9012000FA08F040EA09002B
:102E30000FFA80F90FE075B923789DF80510891C09
:102E400003FB01709DF805108A1C01A9FDF7FEF92E
:102E50002078401C20704046411C4FFA81F80F2812
:102E6000D5DB484609B0BDE8F08F2DE9F84F0446A0
:102E70000D4616461F46DDF8288044F020004FFA24
:102E800080F909F0FF003B4632462946CDF8008024
:102E9000FFF7F8FE82465046BDE8F88F01460878F5
:102EA000802801D1002070470878882801D10020AF
:102EB000F9E708788E2801D10020F4E76FF00E00C2
:102EC000F1E7014601F0200008B1002070476FF0E3
:102ED0000E00FBE701464878401C085C00F0030246
:102EE000032A01D1002070476FF00E00FBE770B598
:102EF00005460C46002624B121462846FFF7ECFD86
:102F00000646F04380B24FF2B801884202D06FF01B
:102F10000E0070BD0020FCE7014601F0040008B17E
:102F2000002070476FF00E00FBE700002DE9FF4F17
:102F3000ADF2344D8346154698460026CDF828B0AC
:102F4000B14601240027002006902BF0040040F039
:102F500020000590042004900020039080210BA8FD
:102F6000FDF70DFA002028706F480DF22C43324611
:102F70000090DDF838140A98FFF777FF6A48FFF7EA
:102F80008DFF20B100200DF2444DBDE8F08F04A864
:102F900000906548417807AB09AA00F036F98246EF
:102FA000BAF1000F18D1012028705F489DF8102059
:102FB0008118059800F057F99DF81C0088F800006A
:102FC00059489DF8101008440168C8F8011040687D
:102FD000C8F805000020D6E70A2001F0ADFE002069
:102FE000287000BF0020CDF82C04CDF83004601EFE
:102FF000C4B20BA800EBC40050F8011FCDF82C148C
:103000004068CDF83004484808A90DF22C433246F8
:10301000CDE90010DDF838140A98FFF7CAFE80B237
:1030200003904FF00009002737E004A83E4A0090C3
:10303000517802EB090007AB09AA00F0E6F88246D6
:10304000BAF1000F1FD19DF810004844364A81188C
:10305000059800F008F99DF81C00297801EBC101E2
:1030600008F80100287800EBC000401C40449DF89F
:10307000101049442C4A11440A68026049684160B2
:103080002878401C2870284909F10100085C801C40
:10309000484400F0FF09781CC7B29DF82000874221
:1030A000C3DB301DC6B200272FE00120B8400399D2
:1030B000084040B3301FC21700EB5272D2100DF21D
:1030C0002C439A5C311FCB1701EB5373DB10A1EB40
:1030D000C30307FA03F31A43D3B2C21700EB5272C9
:1030E000D2100DF22C4C0CF802300BA800F8346012
:1030F00000EBC400DDF82C1440F8011FDDF830149B
:103100004160601CC4B2781CC7B2102FCDDB06989A
:10311000401CC0B20690002C03DD06982028FFF664
:1031200061AF00202FE700008C0100202DE9F04F57
:10313000ADF5097D80468A4614461E464FF0000BC9
:10314000CDF818800025A94604200290802107A808
:10315000FDF715F900202070234804A987AB5A46D3
:10316000CDE9001051460698FFF723FE9DF81000A8
:1031700028B9002020700DF5097DBDE8F08F0025ED
:10318000A9462BE002A8184A00905178501903ABC9
:1031900005AA00F03AF80746B7B99DF80C00217867
:1031A00001EBC1017054207800EBC000401C30449A
:1031B0009DF8081029440C4A11440A6802604968C5
:1031C00041602078401C20700749681C085C801C06
:1031D0002844C5B209F1010000F0FF099DF8100074
:1031E0008145CFDB0020C6E78C01002010B50446E6
:1031F000204600F0FFFB2146042000F0E6FA10B163
:103200006FF00E0010BD0020FCE72DE9F05F0446D2
:1032100017469846DDF8289094F802A06078401E82
:1032200000F0FF0B0225BAF1000F03D06FF00E0083
:10323000BDE8F09F60195946FFF759FE06460EB1EA
:10324000012000E0002000B10AE0605D3870681CD9
:10325000205C88F80000A81C89F800000020E7E73F
:103260006FF00B00E4E72DE9FF4105460E46002410
:103270002846FFF726FE07460FB1012000E0002098
:1032800000B11CE02046611CCCB201A90D54022201
:103290002046611CCCB201A90A5401A8204431681F
:1032A00001607168416004F10800C4B26A4601A976
:1032B000204600F0ADFB002004B0BDE8F081FF2007
:1032C0008DF8000000208DF801006FF00E00F3E78C
:1032D00010B518480068047A022C01D0042C05D1DE
:1032E000FDF784FC13480068047A1CE0062C19D111
:1032F00010480068407805280ED10E480068007814
:1033000000F07F0040B90B490968C87800F06CFDF7
:1033100009490968086A8047084909688868804738
:10332000082400E00824034909680C7200F0D6FB69
:1033300010BD000054000020600000205800002054
:1033400008B54FF4A06000F0F3F809208DF80000F4
:1033500001208DF801008DF802008DF80300684609
:1033600000F0B4F81D208DF8000000208DF8010059
:103370008DF8020001208DF80300684600F0A6F8E1
:103380001E208DF8000000208DF8010001208DF82E
:1033900002008DF80300684600F098F81C208DF8B4
:1033A000000001208DF8010003208DF802000120AB
:1033B0008DF80300684600F089F814208DF80000AD
:1033C00002208DF801008DF8020001208DF8030025
:1033D000684600F07BF813208DF8000002208DF87D
:1033E000010001208DF802008DF80300684600F00E
:1033F0006DF817208DF8000000208DF801008DF881
:10340000020001208DF80300684600F05FF80A20F2
:103410008DF8000000208DF8010001208DF80200D9
:103420008DF80300684600F051F808BD01460529F3
:103430000ED2DFE801F0030507090B0000207047FA
:103440000020FCE70020FAE70020F8E70020F6E77C
:103450002220F4E738B504460B4951F82400012135
:1034600000F0A0FB094830F81400ADF8000010206F
:103470008DF8030003208DF80200054951F824005F
:103480006946FDF7F3FE38BDD4550008D85500084D
:1034900048000020034931F81010034A52F8202058
:1034A00051617047D855000848000020034931F8A1
:1034B0001010034A52F8202011617047D8550008B7
:1034C0004800002000BFFEE77047704770B50F232B
:1034D000C47801780122F4B1144C2468457804F4CE
:1034E000E064C4F5E064240AC4F10406E34084788F
:1034F000B5401C402C4301F1E021230181F8003448
:10350000007800F01F018A404009800000F1E020AF
:10351000C0F8002170BD01F01F0082404809800002
:1035200000F1E020C0F8802170BD00000CED00E04B
:103530000249084302490860704700000000FA058C
:103540000CED00E0024A114001430248016070475F
:1035500080FFFF1F08ED00E070B5022647480068B5
:10356000447846480068007800F07F00002844D185
:10357000092C03D100F078FF06465FE0052C14D13A
:103580003E480068C0787F280BDC3C4800688078A3
:1035900038B93A480068808818B938480068807A95
:1035A00008B1082565E0002648E0032C0ED1334819
:1035B0000068C078012807D130480068808818B9B1
:1035C00000F076FF064639E0022637E0012C35D1BF
:1035D0002A480068C07801280DD1284800688088F2
:1035E00048B926480068407A00F0200018B100F081
:1035F000C7FD064622E0022620E020480068007849
:1036000000F07F00012805D10B2C17D100F0CCFF72
:10361000064613E019480068007800F07F00022891
:103620000BD1012C03D100F0ABFD064606E0032CC4
:1036300004D100F051FF064600E002264EB1E0B290
:103640000F4A1268516988470646032E01D10925A1
:103650000FE00EB108250CE006250021094800689E
:1036600080B2801C084A42F81010302007490880B8
:1036700000BF024909680D7270BD000054000020AF
:1036800058000020505C00400060004066000020B0
:1036900010B511480068047A022C01D0042C01D125
:1036A000082412E0032C01D0052C05D1FDF7FEFA09
:1036B00009480068047A08E0072C05D10749096821
:1036C000C8688047082400E00824034909680C7290
:1036D00000F004FA10BD0000540000205800002043
:1036E00070B504460D462946204601F08BFD29465B
:1036F000042000F06AF808B1212070BD0020FCE72A
:1037000038B5044604A0006800902146684601F0E0
:1037100079FD002038BD0000550000001FB50020D5
:1037200003906B4603AA0021022000F009F91FBD97
:103730007FB504460D460E2C02D0272004B070BD84
:1037400007208DF800008DF80140224629460DF132
:103750000200FCF77BFD684601F086FD0020EDE7E6
:1037600003464A78012B06D0022B0ED0032B16D02D
:10377000042B28D11DE0501C085C00F00200022838
:1037800001D1212070470020FCE7501E085C00F0AA
:103790002000202801D12120F4E70020F2E7501C6E
:1037A000085C00F00200022801D12120EAE7002095
:1037B000E8E7501C085C00F00200022801D121203B
:1037C000E0E70020DEE70120DCE702460878212858
:1037D00001D123207047082A61D008DC012A13D0C8
:1037E000022A17D0042A24D0072A6BD14CE0092AD8
:1037F00060D00A2A64D0552A64D10878552801D1AE
:103800000020E7E72120E5E7087808B90020E1E794
:103810002120DFE7087820B1822804D0832806D150
:1038200003E00020D6E72120D4E72120D2E72120A1
:10383000D0E708788038112824D2DFE800F0092387
:103840002323232311131517191B1D1F21230F00D9
:10385000487808B10020BDE72120BBE70020B9E788
:103860002120B7E72120B5E72120B3E72120B1E7E8
:103870002120AFE72120ADE72120ABE72120A9E7F8
:103880002120A7E72120A5E7087810B1822804D1DC
:1038900001E000209EE721209CE721209AE708789C
:1038A00010B1822804D101E0002093E7212091E7A4
:1038B00021208FE7087808B900208BE7212089E7CD
:1038C000212087E7012085E710B500241A480078F9
:1038D000012801D101F0F2FB00BF1848FFF710FFEB
:1038E00016480078552801D1002010BD12480078F4
:1038F000012802D101F0E2FB12E00F48007878B90C
:1039000000BF0E48FFF7FCFE0C480078552801D197
:103910000020EAE72046611C8CB2B0F5407FF0DB66
:1039200006480078552804D02046611C8CB2052832
:10393000D3DB2620D9E700001A0000208C010020EC
:103940002DE9FE4305460E4617461C461748FFF76D
:10395000D7FE16480078552801D0FFF7B5FF212083
:103960002070002060703046FFF760FD4FFA80F84D
:10397000B8F1000F01D0012000E0002000B113E0F9
:1039800002208DF800008DF801508DF802606A1E4B
:1039900039460DF10300FCF759FC2146684601F059
:1039A00031FC0020BDE8FE832220FBE78C010020D3
:1039B0002DE9FC4104460D4616461F46DDF82080E1
:1039C00008208DF800008DF801408DF802508DF828
:1039D00003608DF804704146684601F013FC4146CF
:1039E0000720FFF7F2FE10B12120BDE8FC81002086
:1039F000FBE7000038B5044604A0006800902146AB
:103A0000684601F0FFFB002038BD00000400000004
:103A100070B5C2B004460E4615462120287000201D
:103A20006870012C03DBFF2C01DC012000E000208A
:103A300010B9272042B070BD04208DF804008DF825
:103A40000540224631460DF10600FCF7FFFB2946F2
:103A500001A801F0D7FB29460420FFF7B6FE30B1DC
:103A60002878872801D12820E4E72120E2E70020F8
:103A7000E0E72DE9F041C2B004460D4616461F4668
:103A8000DDF8208109208DF804008DF805408DF8BF
:103A900006508DF80760A21E394602A8FCF7D6FB37
:103AA000414601A801F0AEFB002042B0BDE8F08124
:103AB000F0B5561C7510074E06EB41042B4605E089
:103AC00034F8047B20F8017B401C5B1E002BF7D1EF
:103AD000F0BD0000006000407047000010B50D48C8
:103AE00090F82C10002000F0B9F90B480068007A1B
:103AF000082805D14002094908801020084908809B
:103B000005480068007A092801D1012010BD002075
:103B1000FCE70000E40000205400002064000020C6
:103B20006600002001210B48016000200A4A108035
:103B300010460088074A10600020121D10604FF4E4
:103B4000E050054A108010460088024A10600020AC
:103B500070470000405C00405E000020044A0029DD
:103B6000516901D0014300E0814351617047000079
:103B700000100240044A0029D16901D0014300E04D
:103B80008143D1617047000000100240044A0029BF
:103B9000116901D0014300E08143116170470000C9
:103BA00000100240044A0029916901D0014300E05D
:103BB000814391617047000000100240044A0029CF
:103BC000D16801D0014300E08143D160704700001B
:103BD0000010024030B51F494A6812F00C031E4A1B
:103BE00003D0042B01D0082B21D002604A680F2398
:103BF0001A4C03EA1212A35C0268DA4042604B6876
:103C0000072505EA1323E35C22FA03F383604B687C
:103C100005EAD323E35CDA40C2604968032303EA80
:103C20009131231F595CB2FBF1F1016130BD4A684B
:103C30004B6802F470124FF0020413F4803F04EB5F
:103C4000924202D04B689B0301D5054B00E0024B2A
:103C50005A43CAE70010024000127A0035000020E3
:103C600000093D000149C1F8D800704700004242F8
:103C70000029018802D041F0400101E021F040011B
:103C800001807047114910B588420AD1841401217E
:103C90002046FFF793FF2046BDE810400021FFF7C4
:103CA0008DBF0B49884202D10121041404E0094967
:103CB00088420AD10121C4132046FFF767FF20463E
:103CC000BDE810400021FFF761BF10BD003001408A
:103CD00000380040003C00400246002012890A42A1
:103CE00000D001207047808970478181704730B5CE
:103CF00002884C8802F441530A88CD8822438C887C
:103D00002C4322430C8922434C8922438C89224331
:103D1000CC8922431A430280828B22F40062828380
:103D2000098A018230BD2DE9F04180460E461546D4
:103D30001F46B5F5047F02DD4FF4047000E028460D
:103D40000546002406E0315D404600F007F838558E
:103D5000601C84B2AC42F6DBBDE8F08170B504466D
:103D60000D4600BF02212046FFF7B6FF0028F9D01C
:103D700029462046FFF7B9FF00BF01212046FFF783
:103D8000ABFF0028F9D02046FFF7ADFFC0B270BDF1
:103D90000021018041808180C18001814181818138
:103DA000C1810721018270477047000010B51021C2
:103DB0000848FDF7B8FA012000F0BEFF10210548C1
:103DC000FDF7AFFA012000F0B7FF10210148FDF721
:103DD000AAFA10BD000801404FF6F8710140014AEF
:103DE00011607047505C004030B501460F4B1A78A7
:103DF000002014E003060E4C04EB9353D3F8003C70
:103E000048F68F74234048F280042343C4B223430E
:103E10000406074D05EB9454C4F8003C401C904246
:103E2000E8D341F08003034C236030BDE000002064
:103E3000005000404C5C004010B54A105300054A49
:103E4000126892B202EBC002121D034C44F8123009
:103E500010BD0000505C00400060004010B50246FC
:103E60000F48006880B200EBC200801D0D4C04EBCF
:103E700040033E290BDD481101F01F040CB9441E1C
:103E8000A0B24FF4004444EA80241C6007E04810CC
:103E900001F001040CB1441CA0B284021C6010BDEE
:103EA000505C00400060004030B50E4C04EB8003D5
:103EB000D3F8003C4BF68F7403EA040201F48053FC
:103EC0000BB182F4805201F400530BB182F4005222
:103ED00042F4004343F08003024D05EB8004C4F834
:103EE000003C30BD0050004010B50B4B03EB80028E
:103EF000D2F8002C4BF68F7302EA030181F4805153
:103F000081F4005141F4004242F08002024C04EB83
:103F10008003C3F8002C10BD0050004010B54A10BB
:103F20005200044B1B689BB203EBC003024C44F8E5
:103F3000132010BD505C004000600040044A12682D
:103F400092B202EBC002921C024B43F8121070476F
:103F5000505C00400060004030B50E4C04EB800324
:103F6000D3F8003C48F6BF7403EA040201F01003E2
:103F70000BB182F0100201F020030BB182F020029D
:103F800042F4004343F08003024D05EB8004C4F883
:103F9000003C30BD0050004010B5074B03EB8002E1
:103FA000D2F8002C48F68F131A400A43024C04EB57
:103FB0008003C3F8002C10BD0050004010B500F085
:103FC00001F810BD0CB50020019000903348006846
:103FD00040F480303149086000BF3048006800F488
:103FE000003000900198401C0190009818B9019889
:103FF000B0F5A06FF1D12948006800F4003010B18D
:104000000120009001E0002000900098012843D199
:104010002348006840F01000214908600846006805
:1040200020F0030008600846006840F002000860C5
:104030001A48406819494860084640684860084680
:10404000406840F4806048600846406820F47C1076
:1040500048600846406840F4E81048600846006838
:1040600040F08070086000BF0C48006800F00070ED
:104070000028F9D00948406820F00300074948604B
:104080000846406840F00200486000BF03484068AE
:1040900000F00C000828F9D10CBD0000001002400F
:1040A0000020024010B500F079FD0121C806FFF79D
:1040B00061FD10BD10B50020FFF7D4FD0121C8053A
:1040C000FFF758FD10BD000038B5012429480068ED
:1040D00080B2001D284931F8100080B201EB400089
:1040E000009026480068007A092832D000980078AD
:1040F0002249096808700098401C009000980078D8
:104100001E49096848700098401C0090009800EB18
:1041100044000090009931F8020B0091FCF795F9EA
:10412000164909684880009800EB44000090009907
:1041300031F8020B0091FCF788F910490968888072
:10414000009800EB44000090009800880B49096833
:10415000C880012009490968087208480068C088B9
:1041600010B9FFF7F9F901E0FCF7FEFDFFF7B6FC27
:1041700038BD0000505C004000600040540000204A
:104180002DE9F04754480068007800F07F08B8F146
:10419000000F0AD150480068407A00F0DF004E4915
:1041A000096848720020BDE8F087B8F1020F7CD1A1
:1041B00049480068408818B947480068007908B144
:1041C0000220F0E7DFF8149143480068477927F0B0
:1041D00080052C4640480068407900F0800038B1E6
:1041E0003F4901EB8400D0F8000C00F0300606E0F7
:1041F0003B4901EB8400D0F8000C00F4405699F8DC
:104200000000A84204D91EB133480068807A08B97A
:104210000220C8E707F0800080B1314901EB84003B
:10422000D0F8000C00F0300010284BD1E0B2FCF7C1
:10423000A7FBE0B23021FFF78FFE43E0284901EBF6
:104240008400D0F8000C00F44050B0F5805F39D104
:10425000E4B9244A92F82C10E0B2FFF7FFFD204A9F
:1042600002EB8401D1F8001C4BF68F7201EA0200C8
:1042700080F4805080F4005040F4004141F080010F
:10428000174B03EB8402C2F8001C1BE0E0B2FCF702
:104290005DFB134A02EB8401D1F8001C4BF68F72D0
:1042A00001EA020080F4805000E011E080F4005048
:1042B00040F4004141F08001094B03EB8402C2F855
:1042C000001C00BF084909684869804700206AE768
:1042D00000BF022067E7000054000020E00000203B
:1042E00000500040E40000206000002010B50446AB
:1042F0002CB90120064909680882002010BD054933
:10430000096808688047024800680A30F6E700003C
:10431000540000206000002010B5024606480068E6
:10432000438A32B98888C01A034C2468208200204E
:1043300010BD08681844FBE75400002010B504467F
:104340002CB90120064909680882002010BD0549E2
:10435000096888688047024800680C30F6E700006A
:10436000540000206000002010B504462CB9022043
:10437000394909680882002010BD002037490880AB
:1043800035480068007800F07F0018BB32490968A2
:10439000487A00F0200131B13049097841F002013A
:1043A0002E4A117005E02D49097801F0FD012B4AD4
:1043B000117000F0400131B12849097841F0010144
:1043C000264A117005E02549097801F0FE01234ACB
:1043D00011703AE020480068007800F07F00012862
:1043E00001D11E48C8E71C480068007800F07F0033
:1043F000022828D1184A1268517901F00F0001F003
:1044000080027AB1164B03EB8002D2F8002C02F046
:104410003002102A16D1114A127842F001020F4BD5
:104420001A700FE00E4B03EB8002D2F8002C02F45E
:104430004052B2F5805F05D1084A127842F001027D
:10444000064B1A7001E0002096E7064909680869E2
:104450008047024890E70000540000204C000020F4
:10446000005000406000002010B50E480068C07881
:104470000D494978884213DC0A480068807878B989
:1044800008480068808858B906480068C07805491F
:10449000096888720549096848688047002010BD8E
:1044A0000220FCE754000020E00000206000002013
:1044B00010B507480068407A40F0200004490968B8
:1044C000487204490968C8698047002010BD00008F
:1044D00054000020600000202DE9F0412E480068C3
:1044E000467926F080073C462B480068407900F06A
:1044F000800038B1294901EB8400D0F8000C00F0AD
:10450000300506E0254901EB8400D0F8000C00F4EA
:10451000405523480078A04208D91F4800684088C9
:1045200020B91DB11C480068807A10B90220BDE88E
:10453000F08106F08000A0B1184A02EB8401D1F8A6
:10454000001C48F6BF7201EA020080F0100040F43F
:10455000004141F08001114B03EB8402C2F8001CC2
:1045600014E00E4A02EB8401D1F8001C4BF68F7266
:1045700001EA020080F4805040F4004141F08001E3
:10458000064B03EB8402C2F8001C00BF0549096812
:10459000886980470020CAE754000020005000408E
:1045A000E00000206000002010B5174B1B68D97890
:1045B000154B1B685879154B1B689A699047044640
:1045C00011480068807AE8B13CB90F48006800796A
:1045D00018B90D480068807808B1022010BD8CB968
:1045E0000B490968C8688047074800684079064950
:1045F0000968C87204480068C078034909680873EC
:104600000020EBE70220E9E75400002058000020DA
:104610006000002010B504460020064908700648D6
:1046200004802146054800F0A4F80121034800F069
:104630008EF810BD18000020220000200004004069
:1046400010B50021014800F082F810BD00040040C0
:1046500002480068401C01490860704714000020AF
:1046600010B51348006840F0010011490860084681
:104670004068104908400E494860084600680E49E5
:1046800008400B4908600846006820F48020086054
:104690000846406820F4FE0048604FF41F00886020
:1046A000FFF78CFC4FF000600449086010BD00006B
:1046B000001002400000FFF8FFFFF6FE08ED00E0EA
:1046C00010B50121880700F03FF800F029FB10BD6C
:1046D00010B50B480088002805DD09480088401EF9
:1046E0000749088006E001200649087000210648B5
:1046F00000F02DF80121044800F026F810BD00005C
:1047000022000020180000200004004010B50B48D3
:104710000088002805DD09480088401E07490880F8
:1047200006E00120064908700021064800F00FF855
:104730000121044800F008F810BD0000200000200E
:104740002F00002000080040C94301827047002963
:10475000018802D041F0010101E021F00101018056
:104760007047002A828901D00A4300E08A4382818F
:10477000704781847047000030B502881B4B1C4C89
:1047800098420DD0A0420BD0B0F1804F08D0194D07
:10479000A84205D0184DA84202D0184DA84203D116
:1047A00022F070054A882A43154DA84206D0154DBF
:1047B000A84203D022F44075CA882A4302808A881E
:1047C00082850A88028598420AD0A04208D00E4A03
:1047D000904205D00D4A904202D00D4A904201D13C
:1047E000097A01860121818230BD0000002C014040
:1047F000003401400004004000080040000C00406C
:1048000000100040001400400040014000440140FE
:10481000004801400029018802D041F0040101E074
:1048200021F004010180704770B504462146134809
:10483000FEF756FF08B1612070BD6078401EC5B21A
:10484000605D00F02000202801D16220F4E720788C
:10485000802804D16078042801D16120ECE702208F
:10486000074908702078802803D101200549087085
:1048700001E06120E0E70020DEE70000B455000819
:104880002B0000202C0000200EB54720ADF80400BE
:104890004FF47A70ADF800000020ADF80600ADF8D6
:1048A000020069464FF08040FFF766FF00214FF09D
:1048B0008040FFF7AFFF01218807FFF745FF012286
:1048C00011469007FFF74DFF00214FF08040FFF7A2
:1048D0003EFF0EBD0EB54620ADF804000120ADF838
:1048E00000000020ADF80600ADF8020069464FF068
:1048F0008040FFF741FF00214FF08040FFF78AFF23
:1049000001218807FFF720FF012211469007FFF7DA
:1049100028FF00214FF08040FFF719FF0EBD10B5B2
:1049200000F003F800F007F810BD10B501210720D2
:10493000FFF720F910BD0EB500F092FD00F032FD3A
:104940004720ADF8040040F2E730ADF80000002049
:10495000ADF80600ADF8020069464FF08040FFF761
:104960000BFF00214FF08040FFF754FF0121880723
:10497000FFF7EAFE012211469007FFF7F2FE0EBD97
:104980002DE9F04107460E461546B5F5047F02DDD8
:104990004FF4047000E028460546002405E0384640
:1049A00000F008F83055601C84B2AC42F7DBBDE87B
:1049B000F081000010B5044640F6B830FFF72AFE3B
:1049C00000BF2021204600F073F818B90548007890
:1049D0000128F6D1FFF734FE204600F0C7F8C0B238
:1049E00010BD0000180000202DE9F04107460D46DB
:1049F0001646002405E0295D384600F006F8601CE4
:104A000084B2B442F7DBBDE8F08170B504460D46D0
:104A100000BF8021204600F04BF80028F9D029463D
:104A2000204600F0A7F870BD0029818902D041F42A
:104A3000005101E021F4005181817047174910B500
:104A400088420AD101218C032046FFF7B7F820469F
:104A5000BDE810400021FFF7B1B81149884202D1EA
:104A600001214C0410E00F49884202D101218C043D
:104A70000AE00D49884202D10121CC0404E00B492F
:104A800088420AD101210C052046FFF77FF8204615
:104A9000BDE810400021FFF779B810BD0038014093
:104AA0000044004000480040004C004000500040DE
:104AB0000246002012880A4200D001207047000000
:104AC00030B50446008A85B00D464CF6FF710840AB
:104AD000E98801432182A1894EF6F3100140A8889C
:104AE0002A8910436A890A431043A081A08A4FF69D
:104AF000FF410840A9890143A1826846FFF76AF88F
:104B00001948844201D1039800E00298A189090460
:104B100000EBC00101EB0010296801D5490000E05D
:104B20008900B0FBF1F06422B0FBF2F109010B093E
:104B30006FF018056B4300EB8300A3891D044FF051
:104B4000320306D503EBC000B0FBF2F000F0070023
:104B500005E003EB0010B0FBF2F000F00F0008439B
:104B6000208105B030BD0000003801408088C0F3CE
:104B700008007047C1F308018180704710B50446F2
:104B800024B101210448FCF7CCFB03E001210248D9
:104B9000FCF7C9FB10BD0000000C014008B5012165
:104BA0000820FEF7FFFF0120ADF8000003208DF87C
:104BB000020014208DF8030069460248FCF756FBFA
:104BC00008BD0000000C014010B5FBF717FD10BD3B
:104BD00010B50848084908600220096808720748AB
:104BE00007490860074808490860054909680868D6
:104BF000804710BDD407002054000020E4000020AE
:104C000058000020140100206000002010B50F485B
:104C100000680F4908800846008800F400400D49EC
:104C20000988084008B1FBF74DFD0948008800F4E9
:104C3000806008490988084030B14FF6FF300349C9
:104C4000086005494868804710BD0000445C00408A
:104C5000A40000205E000020E400002010B5FFF753
:104C6000D5FF10BD0020064908604FF404400549F7
:104C70000880084600880249091F08600020704724
:104C8000445C00405E0000202DE9F04104460E46E1
:104C9000002504F07F00FCF75DFB054604F07F0073
:104CA000FCF748FB07462A4639463046FEF700FF28
:104CB0002846BDE8F0812DE9F04104460E46154630
:104CC00004F07F00FCF758FB0746AAB2394630468D
:104CD00000F00AF8A9B204F07F00FFF72FF90020D6
:104CE000BDE8F08100BFFEE7F0B5144604F1010C09
:104CF0004FEA6C07DFF824C00CEB41033D460AE0A5
:104D00000678401C90F800C046EA0C2223F8022BDB
:104D10009B1C401C6D1E002DF2D1F0BD00600040B8
:104D20000448008820B103480088401E01490880DB
:104D3000704700000A00002038B50446601C1B497B
:104D400008801C208DF8000000208DF801008DF8EF
:104D5000020001208DF803006846FEF7B7FB012131
:104D60008807FFF7F1FC00214FF08040FFF701FDBD
:104D700001218807FFF7EBFC00BF0C4800880028E2
:104D8000FBD100214FF08040FFF7E1FC1C208DF8A3
:104D9000000001208DF8010003208DF802000120A1
:104DA0008DF803006846FEF791FB38BD0A0000202D
:104DB00010B50446601C0C490880FFF765FD002112
:104DC0004FF08040FFF7D5FC01218807FFF7BFFCBB
:104DD00000BF054800880028FBD100214FF080402B
:104DE000FFF7B5FC10BD00000A00002010B5044616
:104DF0000B480480FFF76EFD00214FF08040FFF765
:104E0000B8FC01218807FFF7A2FC00BF0448008816
:104E10000028FBD100214FF08040FFF798FC10BD27
:104E20000A00002010B500F001FB01200149C87004
:104E300010BD00001A00002008B52020ADF80000C9
:104E400003208DF8020018208DF8030069461148F0
:104E5000FCF70CFA8020ADF8000069460D48FCF71D
:104E600005FA04208DF803004020ADF800006946E3
:104E70000848FCF7FBF91020ADF800008DF803009E
:104E800069460448FCF7F2F910210248FCF74BFA96
:104E900008BD00000008014008B50420ADF800007E
:104EA00003208DF8020018208DF80300694607489A
:104EB000FCF7DCF90820ADF8000004208DF80300B1
:104EC00069460248FCF7D2F908BD0000000801401D
:104ED00010B502210248FCF71DFA40B210BD0000D7
:104EE000000C014001480078704700001A000020C3
:104EF0000120054908700020C87003204870002078
:104F000008718870704700001A00002010B505482D
:104F1000FEF7B8FE00F04EF8FFF78EFF00F006FA3D
:104F200010BD00000030014010B504460548FFF7F1
:104F300085FD00F049F8FFF7AFFF204600F018FAB2
:104F400010BD00000044004010B5FFF7C1FF38B1AC
:104F5000012007490870FFF7D9FFFCF7A7FE06E01C
:104F60000020034908704FF46140FFF7DDFF10BDDA
:104F70001A00002010B50446FE202070002060704A
:104F80000B48007801280BD100F0BAF820B1FD20C1
:104F900020706FF0020010BD204600F01FF805E001
:104FA0000348007810B9204600F06EF80020F2E7C0
:104FB0001A00002010B501210420FEF7F3FD0121A5
:104FC0000803FEF7EFFD10BD10B501210420FEF728
:104FD000E9FD01214804FEF7CDFD10BD30B5ADF56A
:104FE000057D0446002510212548FCF79AF9022189
:104FF0002448FEF7B3FEFF212248FEF7AFFE2070E3
:10500000207855280CD100206070FF211D48FEF744
:10501000A5FEA070FF211B48FEF7A0FEE07027E070
:105020002078FF280CD100206070FF211548FEF782
:1050300095FEA070FF211348FEF790FEE07017E088
:10504000FF211048FEF78AFE6070207800F0E00033
:10505000802801D1607858B1207800F06005607830
:1050600000EBC505A31C2A4601A90648FEF75BFE16
:1050700010210348FCF757F90DF5057D30BD000000
:10508000000801400030014010B504460A48FFF70F
:1050900091FC20702078552802D1002060700AE031
:1050A0000548FFF787FC6070607820B16278A11C2A
:1050B0000148FFF765FC10BD0044004010B5102109
:1050C0000D48FCF730F90120FFF736FE10210A48A1
:1050D000FCF727F900F0FEF810210748FCF723F948
:1050E0000320FFF729FE00F061F80A20FFF724FEF5
:1050F00005200249487010BD000801401A00002038
:1051000010B500242248007818B140F6B830FFF7F7
:1051100081FA2048C078E8B900BF01211E48FFF796
:1051200016FB10211D48FCF7FCF80220FFF740FE9B
:1051300003211B48FEF712FE044604F00804082C65
:1051400003D0184800780128E7D110211348FCF754
:10515000EAF811E00F48C07801280DD100BF1248CD
:10516000007880F001000F49097809B9012100E0B9
:10517000002108400028F2D10548007808B1FFF767
:105180005FFA08480078012800D110BD0020FCE734
:10519000190000201A00002000040040000801400F
:1051A00000300140180000200C00002010B512480B
:1051B0000078012815D1012204211048FCF7B5F828
:1051C0000120FFF7B9FD002204210C48FCF7ADF8DF
:1051D0000120FFF7B1FD012204210848FCF7A5F8E2
:1051E00006E00548007818B900210548FFF70DFCD6
:1051F0000A20FFF7A1FD10BD1A00002000080140A1
:105200000044004070B505460C462E781548C0781D
:10521000012801D100F00AF91248007801280DD1C7
:10522000284600F021F8FFF76BFF18B1FD20207031
:10523000012070BD2046FFF7D1FE08E00948007844
:1052400028B9284600F04EF82046FFF71DFF052E2E
:1052500005D10448C078012801D100F0CDF8002024
:10526000E7E700001A00002030B5ADF5057D0446E3
:10527000002510211548FCF754F800211448FEF7CA
:105280006DFD2078552804D155211148FEF766FDA3
:1052900015E02078242803D1607800F5817508E0B6
:1052A0002078442803D1607800F2022501E060787C
:1052B000851C01AB2A4621460548FEF734FD102126
:1052C0000248FCF730F80DF5057D30BD00080140BF
:1052D0000030014010B501210148FEF73FFD10BD2F
:1052E0000030014070B5044600252078552804D1CF
:1052F00055210D48FFF789FB14E02078242803D1BD
:10530000607800F5817508E02078442803D1607842
:1053100000F2022501E06078851C2A4621460248F9
:10532000FFF762FB70BD00000044004000B585B08F
:105330006846FEF72DFD4FF48270ADF8020028207C
:10534000ADF80C004FF40070ADF80A000220ADF883
:1053500006000120ADF8080069460448FEF7C7FCC6
:1053600001210248FEF784FC05B000BD0030014079
:105370001FB5044600940020ADF80400ADF8060007
:10538000ADF80800ADF80C000C20ADF80A00694635
:105390000348FFF795FB01210148FFF745FB1FBDBF
:1053A000004400400EB54FF47A70ADF80400482078
:1053B000ADF800000020ADF806001020ADF80200A6
:1053C00000208DF8080069460A48FFF7D5F900214A
:1053D0000848FFF71FFA01210648FFF7B5F9012237
:1053E00011460448FFF7BDF900210248FFF7AFF965
:1053F0000EBD0000000800401CB5012009490870DE
:105400000020094908700820009000208DF8040051
:105410000C208DF8050001208DF806006846FBF78A
:1054200031FE1CBD0D0000200C0000201CB500202A
:1054300009490870094908700820009000208DF87B
:1054400004000C208DF8050001208DF80600684648
:10545000FBF718FE1CBD00000D0000200C00002012
:105460000EB54FF47A70ADF804004820ADF8000096
:105470000020ADF806001020ADF8020069460A4889
:10548000FFF77AF900210848FFF7C4F9012106481F
:10549000FFF75AF9012211460348FFF762F900218C
:1054A0000148FFF754F90EBD000400400024FF2519
:1054B00000214FF00060FEF745F8FEF7F3FD0121F3
:1054C0004020FEF74BFBFDF73BFFFFF728FA34487F
:1054D00000684FF47A72B0FBF2F1B1F1807F00D333
:1054E0001DE021F07F40401E4FF0E0225061501738
:1054F0000F22002807DA13071F0E2A4B00F00F06B1
:10550000361F9F5503E013071E0E274B1E5400BF86
:1055100000204FF0E02290610720106100BF0020C2
:10552000FDF798FFFEF7C6FD0A20FFF741FCFFF7E5
:105530004FFB0020FFF722FB00201C490870FBF7FF
:105540005DFA0020FDF7B2FF4FF4C870FFF730FCA2
:105550000020FDF79FFF0120FFF710FB01201349FA
:1055600008701CE012480078B0B92846FBF7CAFA68
:105570000446012C09D0022C07D0042C05D0082C9D
:1055800003D0102C01D0202C03D10020FDF78EFF7A
:1055900002E00020FDF77EFF6420FFF709FCE1E751
:1055A0007801002018ED00E000E400E00800002091
:1055B0009F000020040878000000000000A8000000
:1055C0001D000000000008010000000000040500AC
:1055D00012FC01030800000020001201000200007C
:1055E00000408304D0D00002010203010902290017
:1055F00001010080320904010002030000120921A8
:1056000010010001223400070503034000010705D3
:105610008303400001040309042603530054004D92
:10562000006900630072006F0065006C0065006334
:1056300000740072006F006E006900630073002642
:1056400003530054004D003300320020004D006130
:1056500000730073002000530074006F007200613B
:10566000006700650010035300540020004D0061E6
:105670000073007300120100020000004083040563
:105680002100020102030109027D0002010080FAEB
:1056900009040000030B000000362100010007028E
:1056A000000000A00F0000A00F000000002A000072
:1056B00090D0030000000100000000000000000086
:1056C00000380002000F0100000000000000010788
:1056D0000581030800020705020240000007058259
:1056E000024000000904010002030000000921102B
:1056F0000100012234000705030340001007058361
:1057000003400010040309042603530054004D0015
:105710006900630072006F0065006C006500630043
:10572000740072006F006E00690063007300120362
:1057300053005400520046004E0046004300410012
:10574000058C0901A1018501953F750826FF00150B
:1057500000090191028502953F750826FF0015009A
:10576000090191028507953F750826FF001500097C
:10577000018102C002020000020201091099000327
:10578000F3E0E1D11000936C033B8810009700F226
:1057900039E29702F239E215F239E214F239E2E520
:1057A000E4F7F69380003A970090EC0090EF002A1F
:1057B00052AF0189032B2F032A509F5581389F0038
:1057C0008513ECA71F90EE0014969696A703F5F2AA
:1057D0002DE23B90EC009B0000810CEBD21201F219
:1057E0002DE2A0C2CB8D08970190EF0094EF00AF9F
:1057F0000185442B6C0394EF00B70290EF002A520E
:10580000AF0181042A50B50A94EF00AF048D609770
:1058100055F239E2B567F60010EC0003F3E0E197CA
:105820000C220A9799220B9329033B90D800E89702
:1058300000F239E29702F239E215F239E214F23954
:10584000E2E5E4F7F6E3E2E0E19786F3F22DE8F231
:1058500074E7F20AE93B5E06D300003B5B08970061
:10586000220C9801F2D4E789059787FAD7039703AA
:10587000220C937F1FF248E8F23CE799069781815A
:1058800072B1642A00BF01EE8F01EF937F09F248E5
:10589000E8F2FAE69782915BB11D937F02F248E845
:1058A000F23CE7912C937F09F248E8F2FAE69784FC
:1058B00091412A001E81342A033FEC2A001E890DE3
:1058C00060C2C3DB1002A927142241B533DC008972
:1058D0001A2A43F52A429BB8F0810497029801974F
:1058E00080B110978EB10C9786B108978AB1049752
:1058F00089B10098009700220C970022303B5B088A
:10590000F7E5E4E6E7F6000028590008000000206B
:105910008C0100006C010008EC5900088C0100208B
:10592000C4120000C80100080119C201122042047B
:105930001A34153D02040608202C0203040445060F
:10594000070809041C0C0140141A03531254124D89
:10595000123312321231BA301A125512531A4264EB
:105960002922125212461A4E041243D24113031036
:105970001B0805041A09040B10CB34041A07180A73
:1059800011111C1A05B313D9051B0819041AD504E3
:105990001AD7041359041B0813081AFD081AC10466
:1059A0001AAD041AD5044129C52938CBE109489A12
:1059B000DD101AF90C13DA553308121AEC083229E3
:1059C0001315563308041A190832265A3F0822685C
:1059D0002B201A5812577308341993212BA24A2FDF
:0C59E00049100008000203040607080933
:0400000508000131BD
:00000001FF
